:100000000C9468000C9485000C9485000C94850079
:100010000C9485000C9485000C9485000C9485004C
:100020000C9485000C9485000C9485000C9485003C
:100030000C9485000C9485000C9485000C9485002C
:100040000C9412030C9485000C9485000C9485008C
:100050000C9485000C9485000C9485000C9485000C
:100060000C9485000C9485001F1C1F1E1F1E1F1F53
:100070001E1F1E1F00000000240027002A00000091
:100080000000250028002B000000000023002600AF
:10009000290004040404040404040202020202020B
:1000A000030303030303010204081020408001023C
:1000B00004081020010204081020000000080002BB
:1000C00001000003040700000000000000004304DA
:1000D00011241FBECFEFD8E0DEBFCDBF21E0A0E0EE
:1000E000B1E001C01D92AE30B207E1F710E0C8E602
:1000F000D0E004C02197FE010E946404C736D107F6
:10010000C9F70E945C030C946A040C9400008330CD
:1001100081F028F4813099F08230A9F00895873079
:10012000A9F08830C9F08430B1F4809180008F7DCF
:1001300003C0809180008F7780938000089584B5FC
:100140008F7784BD089584B58F7DFBCF8091B000FB
:100150008F778093B00008958091B0008F7DF9CFA4
:10016000CF93DF93282F30E0F901E654FF4F8491BD
:10017000F901EA55FF4FD491F901EE56FF4FC491B2
:10018000CC23A1F081110E948700EC2FF0E0EE0F4C
:10019000FF1FE857FF4FA591B491EC91ED2381E04B
:1001A00090E009F480E0DF91CF91089580E090E045
:1001B000FACF1F93CF93DF93282F30E0F901E65455
:1001C000FF4F8491F901EA55FF4FD491F901EE56A2
:1001D000FF4FC491CC23A9F0162F81110E948700F4
:1001E000EC2FF0E0EE0FFF1FE258FF4FA591B49106
:1001F0008FB7F894EC91111108C0D095DE23DC93F1
:100200008FBFDF91CF911F910895DE2BF8CFCF9351
:10021000DF9390E0FC01EA55FF4F24918E569F4FEB
:10022000FC0184918823C9F090E0880F991FFC019C
:10023000EC58FF4FA591B491FC01E258FF4FC591D6
:10024000D49161110DC09FB7F8948C9120958223B1
:100250008C938881282328839FBFDF91CF910895B5
:10026000623051F49FB7F8943C91822F809583239C
:100270008C93E8812E2BEFCF8FB7F894EC912E2B37
:100280002C938FBFEACF3FB7F894809108019091EB
:100290000901A0910A01B0910B0126B5A89B05C0E8
:1002A0002F3F19F00196A11DB11D3FBFBA2FA92FF5
:1002B000982F8827BC01CD01620F711D811D911DF2
:1002C00042E0660F771F881F991F4A95D1F708955E
:1002D0008F929F92AF92BF92CF92DF92EF92FF9256
:1002E0004B015C010E9443016B017C010E944301B0
:1002F0006C197D098E099F09683E7340810591053F
:10030000A8F321E0821A9108A108B10888EEC80E6E
:1003100083E0D81EE11CF11C81149104A104B104F6
:1003200029F7FF90EF90DF90CF90BF90AF909F9014
:100330008F900895DC0150E0E8E6F0E081E0861758
:1003400030F49491490F511D8F5F3196F8CF63308F
:1003500038F0CD0183709927892B11F44F5F5F4FDF
:100360009D012D5F3F4F36952795369527956DE674
:1003700071E0A69FC001A79F900DB69F900D11241C
:100380000197820F931F840F951F089560E084E00A
:100390000E94D90068EE73E080E090E00E9468015E
:1003A00061E084E00E94D90068EE73E080E090E0B4
:1003B0000C946801EF92FF921F93CF93DF937C011F
:1003C000D0E0C0E010E0F70180810E94B0000C2E68
:1003D00001C0880F0A94EAF7182B61E0F7018181C8
:1003E0000E94D90060E0F70181810E94D900219626
:1003F000C830D10541F7812FDF91CF911F91FF9038
:10040000EF900895CF92DF92EF92FF920F931F9398
:10041000CF93DF9300D000D000D0CDB7DEB70091EE
:100420000C0110910D0160E0F80182810E94D90059
:1004300061E0F80182810E94070160E0F80181819A
:100440000E94D90061E0F80181810E94070161E00A
:10045000F80180810E94070161E0F80182810E9419
:10046000D9008BE090E00197F1F7BFEBEB2EF12C78
:100470006E2D6170F80180810E94D90061E0F80161
:1004800081810E94D900F7E0FF1205C060E0F80109
:1004900080810E94070160E0F80181810E94D900FB
:1004A000E694F394F8E0FF12E3CF80910C01909171
:1004B0000D010E94DA018F77282F30E0F4E03595A6
:1004C0002795FA95E1F7922F990F990F022F091BA3
:1004D000000F080F80910C0190910D010E94DA012C
:1004E000282F30E0A4E035952795AA95E1F7922FC3
:1004F000990F990FF22EF91AFF0CF80E80910C014A
:1005000090910D010E94DA0186FF7DC0982F9F71A6
:10051000292F30E0E4E035952795EA95E1F7322F71
:10052000330F330F122F131B110F190F85FD145F9B
:1005300080910C0190910D010E94DA01282F30E08A
:1005400094E0359527959A95E1F7922F990F990F99
:10055000E22EE91AEE0CE80E80910C0190910D014B
:100560000E94DA01282F30E044E0359527954A951E
:10057000E1F7922F990F990FC22EC91ACC0CC80E11
:1005800080910C0190910D010E94DA0180910C0183
:1005900090910D010E94DA01482F50E064E05595DA
:1005A00047956A95E1F7942F990F990FD42ED91A90
:1005B000DD0CD80E80910C0190910D010E94DA01A2
:1005C000E0910C01F0910D0160E082810E94D90060
:1005D0008BE090E00197F1F72D2D3C2D4E2D512F02
:1005E0006F2D702F80E090E026960FB6F894DEBF56
:1005F0000FBECDBFDF91CF911F910F91FF90EF9074
:10060000DF90CF900895282F30E074E0359527953E
:100610007A95E1F7922F990F990F122F191B110F4D
:10062000180F86CF1F920F920FB60F9211242F939F
:100630003F938F939F93AF93BF93809104019091C9
:100640000501A0910601B09107013091030123E05B
:10065000230F2D3758F50196A11DB11D20930301DD
:100660008093040190930501A0930601B0930701C4
:100670008091080190910901A0910A01B0910B01AC
:100680000196A11DB11D8093080190930901A093CB
:100690000A01B0930B01BF91AF919F918F913F9150
:1006A0002F910F900FBE0F901F90189526E8230FE3
:1006B0000296A11DB11DD2CFCF93DF93CDB7DEB788
:1006C0002C970FB6F894DEBF0FBECDBF789484B5DB
:1006D000826084BD84B5816084BD85B5826085BD3E
:1006E00085B5816085BD80916E00816080936E00CC
:1006F00010928100809181008260809381008091BE
:10070000810081608093810080918000816080936E
:1007100080008091B10084608093B1008091B0002E
:1007200081608093B00080917A00846080937A0029
:1007300080917A00826080937A0080917A00816053
:1007400080937A0080917A00806880937A0010927A
:10075000C10000910C0110910D0160E0F801818150
:100760000E94070160E0F80180810E94070160E0BB
:10077000F80182810E94070162E08AE00E9407017D
:1007800061E084E00E94070161E084E00E94D900FA
:1007900087E0682E712C90E0A92E90E0B92E8AE0B7
:1007A0000E94B000892B69F460E67AEE80E090E068
:1007B0000E9468018AE00E94B000892B11F40E9417
:1007C000C6010E9402025A876B87632F822F90E036
:1007D0000E949A010696B3010E9450045A840B8528
:1007E00010E06C01F1E0CF1AD108E52CF12C4701A3
:1007F00026E0821A91088CE0E81AF108E5E0CE16AE
:10080000D104A0F5F2E08F16910418F40C31110513
:100810006CF422E0E216F10418F40B32110534F402
:1008200081E1581223C00F31110504F58AE00E94BE
:10083000B000019769F460E97FE581E090E00E94F3
:1008400068018AE00E94B000019711F40E94C6017D
:100850000E940202632F822F90E00E949A0160EDB5
:1008600077E080E090E00E946801C8CF60ED77E01B
:1008700080E090E00E946801A114B10409F48FCFD8
:100880000E9400008CCFE0E0F1E087E0808386E00A
:10089000818388E08283F0930D01E0930C01089539
:1008A000AA1BBB1B51E107C0AA1FBB1FA617B70796
:1008B00010F0A61BB70B881F991F5A95A9F78095B2
:1008C0009095BC01CD010895EE0FFF1F0590F491A6
:0808D000E02D0994F894FFCF1C
:00000001FF
